{
  "contractName": "MessageLogger",
  "abi": [
    {
      "anonymous": false,
      "inputs": [
        {
          "indexed": false,
          "internalType": "address",
          "name": "sender",
          "type": "address"
        },
        {
          "indexed": false,
          "internalType": "string",
          "name": "messageHash",
          "type": "string"
        },
        {
          "indexed": false,
          "internalType": "uint256",
          "name": "timestamp",
          "type": "uint256"
        }
      ],
      "name": "MessageLogged",
      "type": "event"
    },
    {
      "inputs": [
        {
          "internalType": "uint256",
          "name": "",
          "type": "uint256"
        }
      ],
      "name": "messages",
      "outputs": [
        {
          "internalType": "address",
          "name": "sender",
          "type": "address"
        },
        {
          "internalType": "string",
          "name": "messageHash",
          "type": "string"
        },
        {
          "internalType": "uint256",
          "name": "timestamp",
          "type": "uint256"
        }
      ],
      "stateMutability": "view",
      "type": "function"
    },
    {
      "inputs": [
        {
          "internalType": "string",
          "name": "messageHash",
          "type": "string"
        }
      ],
      "name": "logMessage",
      "outputs": [],
      "stateMutability": "nonpayable",
      "type": "function"
    },
    {
      "inputs": [
        {
          "internalType": "uint256",
          "name": "index",
          "type": "uint256"
        }
      ],
      "name": "getMessage",
      "outputs": [
        {
          "internalType": "address",
          "name": "",
          "type": "address"
        },
        {
          "internalType": "string",
          "name": "",
          "type": "string"
        },
        {
          "internalType": "uint256",
          "name": "",
          "type": "uint256"
        }
      ],
      "stateMutability": "view",
      "type": "function"
    },
    {
      "inputs": [],
      "name": "getTotalMessages",
      "outputs": [
        {
          "internalType": "uint256",
          "name": "",
          "type": "uint256"
        }
      ],
      "stateMutability": "view",
      "type": "function"
    }
  ],
  "bytecode": "0x608060405234801561001057600080fd5b50610823806100206000396000f3fe608060405234801561001057600080fd5b506004361061004c5760003560e01c80630d80fefd14610051578063147e9108146100835780637c990052146100a157806386f79edb146100bd575b600080fd5b61006b60048036038101906100669190610561565b6100ef565b60405161007a939291906105e1565b60405180910390f35b61008b6101d1565b604051610098919061061f565b60405180910390f35b6100bb60048036038101906100b69190610520565b6101dd565b005b6100d760048036038101906100d29190610561565b6102e7565b6040516100e6939291906105e1565b60405180910390f35b600081815481106100ff57600080fd5b90600052602060002090600302016000915090508060000160009054906101000a900473ffffffffffffffffffffffffffffffffffffffff169080600101805461014890610735565b80601f016020809104026020016040519081016040528092919081815260200182805461017490610735565b80156101c15780601f10610196576101008083540402835291602001916101c1565b820191906000526020600020905b8154815290600101906020018083116101a457829003601f168201915b5050505050908060020154905083565b60008080549050905090565b600060405180606001604052803373ffffffffffffffffffffffffffffffffffffffff16815260200183815260200142815250908060018154018082558091505060019003906000526020600020906003020160009091909190915060008201518160000160006101000a81548173ffffffffffffffffffffffffffffffffffffffff021916908373ffffffffffffffffffffffffffffffffffffffff160217905550602082015181600101908051906020019061029c929190610400565b506040820151816002015550507fb5200a0707d2b52d7942fd25f25b70b5015523c0970e541143cc0d82a13201333382426040516102dc939291906105e1565b60405180910390a150565b6000606060008060008581548110610328577f4e487b7100000000000000000000000000000000000000000000000000000000600052603260045260246000fd5b906000526020600020906003020190508060000160009054906101000a900473ffffffffffffffffffffffffffffffffffffffff1681600101826002015481805461037290610735565b80601f016020809104026020016040519081016040528092919081815260200182805461039e90610735565b80156103eb5780601f106103c0576101008083540402835291602001916103eb565b820191906000526020600020905b8154815290600101906020018083116103ce57829003601f168201915b50505050509150935093509350509193909250565b82805461040c90610735565b90600052602060002090601f01602090048101928261042e5760008555610475565b82601f1061044757805160ff1916838001178555610475565b82800160010185558215610475579182015b82811115610474578251825591602001919060010190610459565b5b5090506104829190610486565b5090565b5b8082111561049f576000816000905550600101610487565b5090565b60006104b66104b18461066b565b61063a565b9050828152602081018484840111156104ce57600080fd5b6104d98482856106f3565b509392505050565b600082601f8301126104f257600080fd5b81356105028482602086016104a3565b91505092915050565b60008135905061051a816107d6565b92915050565b60006020828403121561053257600080fd5b600082013567ffffffffffffffff81111561054c57600080fd5b610558848285016104e1565b91505092915050565b60006020828403121561057357600080fd5b60006105818482850161050b565b91505092915050565b610593816106b7565b82525050565b60006105a48261069b565b6105ae81856106a6565b93506105be818560208601610702565b6105c7816107c5565b840191505092915050565b6105db816106e9565b82525050565b60006060820190506105f6600083018661058a565b81810360208301526106088185610599565b905061061760408301846105d2565b949350505050565b600060208201905061063460008301846105d2565b92915050565b6000604051905081810181811067ffffffffffffffff8211171561066157610660610796565b5b8060405250919050565b600067ffffffffffffffff82111561068657610685610796565b5b601f19601f8301169050602081019050919050565b600081519050919050565b600082825260208201905092915050565b60006106c2826106c9565b9050919050565b600073ffffffffffffffffffffffffffffffffffffffff82169050919050565b6000819050919050565b82818337600083830152505050565b60005b83811015610720578082015181840152602081019050610705565b8381111561072f576000848401525b50505050565b6000600282049050600182168061074d57607f821691505b6020821081141561076157610760610767565b5b50919050565b7f4e487b7100000000000000000000000000000000000000000000000000000000600052602260045260246000fd5b7f4e487b7100000000000000000000000000000000000000000000000000000000600052604160045260246000fd5b6000601f19601f8301169050919050565b6107df816106e9565b81146107ea57600080fd5b5056fea264697066735822122021f2e8a58292b4accf4deaaf6243784042f900681fdf051a824218ddd5ac176164736f6c63430008000033",
  "immutableReferences": {},
  "source": "// SPDX-License-Identifier: MIT\r\npragma solidity ^0.8.0;\r\n\r\ncontract MessageLogger {\r\n    struct Message {\r\n        address sender;\r\n        string messageHash;\r\n        uint256 timestamp;\r\n    }\r\n\r\n    Message[] public messages;\r\n\r\n    event MessageLogged(address sender, string messageHash, uint256 timestamp);\r\n\r\n    function logMessage(string memory messageHash) public {\r\n        messages.push(Message(msg.sender, messageHash, block.timestamp));\r\n        emit MessageLogged(msg.sender, messageHash, block.timestamp);\r\n    }\r\n\r\n    function getMessage(uint256 index) public view returns (address, string memory, uint256) {\r\n        Message storage msgData = messages[index];\r\n        return (msgData.sender, msgData.messageHash, msgData.timestamp);\r\n    }\r\n\r\n    function getTotalMessages() public view returns (uint256) {\r\n        return messages.length;\r\n    }\r\n}\r\n",
  "sourcePath": "C:\\Users\\Asus\\Desktop\\messangerHedera\\hedera-messaging-app\\contracts\\MessageLogger.sol",
  "compiler": {
    "name": "solc",
    "version": "0.8.0+commit.c7dfd78e.Emscripten.clang"
  },
  "schemaVersion": "3.4.16",
  "updatedAt": "2024-10-18T16:30:53.674Z",
  "devdoc": {
    "kind": "dev",
    "methods": {},
    "version": 1
  },
  "userdoc": {
    "kind": "user",
    "methods": {},
    "version": 1
  }
}